:101C000012C02CC02BC02AC029C028C027C026C0A3
:101C100025C024C023C022C021C020C01FC01EC0B8
:101C20001DC01CC01BC011241FBECFE5D4E0DEBF09
:101C3000CDBF10E0A0E6B0E0E6EAFFE102C005900B
:101C40000D92A236B107D9F721E0A2E6B0E001C0BB
:101C50001D92AA36B207E1F74AD0A3C1D1CF5D9B4E
:101C6000FECF8CB90895CF92DF92EF92FF92C12CF4
:101C7000D12C76015F9913C08FEFC81AD80AE80AF1
:101C8000F80A81E8C81684E8D8068EE1E806F1046F
:101C900088F3E0916200F09163000995EBCF8CB17D
:101CA000FF90EF90DF90CF900895CF93DF93D82FE0
:101CB000C0E0CD1719F0D7DFCF5FFBCFDF91CF9119
:101CC0000895CF93C82FCFDF803239F484E1C7DF86
:101CD0008C2FC5DF80E1CF91C2CFCF910895C3DFB4
:101CE000803221F484E1BBDF80E1B9CF08950000A8
:101CF00010BC8CE089B988E18AB986E880BDB3DF81
:101D0000803381F1813399F4AEDF8032C1F784E111
:101D1000A6DF81E4A4DF86E5A2DF82E5A0DF80E222
:101D20009EDF89E49CDF83E59ADF80E51DC1803476
:101D300029F499DF8638B0F096DF14C0813471F44D
:101D400092DF803811F482E003C0813819F481E019
:101D5000B8DFD5CF8238E9F482E1FACF823421F4BA
:101D600084E1A3DFBCDFCBCF853411F485E0F9CF6C
:101D700090EB980F9330B0F3853539F474DF80938E
:101D8000640071DF80936500EDCF863521F484E037
:101D90008CDF80E0DDCF843609F090C064DF809373
:101DA000670161DF80936601809169018E7F809376
:101DB000690159DF853429F480916901816080933C
:101DC000690106E610E08091660190916701980133
:101DD000265630402817390728F445DFF80181934B
:101DE0008F01F1CF40DF803209F089CF8091690106
:101DF00080FF1FC006E610E08091660190916701A8
:101E00009801265630402817390708F055C0F801C8
:101E100061918F018091640090916500B5D08091AF
:101E20006400909165000196909365008093640032
:101E3000E3CFF894E199FECF1127E0916400F0918F
:101E40006500EE0FFF1FC6E6D0E08091660190911D
:101E5000670180FF01C00196103051F422D003E0E9
:101E600000935700E8951DD001E100935700E895D5
:101E70000990199016D001E000935700E89513954A
:101E8000103258F011270DD005E000935700E89567
:101E900008D001E100935700E8953296029739F097
:101EA000DBCF0091570001700130D9F30895103055
:101EB00011F00296E7CF112484E156C0843709F06F
:101EC00046C0D1DE80936701CEDE80936601CBDE13
:101ED00090916901853421F49160909369010DC05E
:101EE0009E7F909369018091640090916500880FB6
:101EF000991F9093650080936400B5DE803209F0ED
:101F0000FECE84E1ACDE00E010E0809166019091AD
:101F100067010817190748F520916901809164004D
:101F20009091650020FF02C027D004C021FD03C0AE
:101F3000FC01849194DE809164009091650001968B
:101F400090936500809364000F5F1F4FDECF85374D
:101F500079F489DE803209F0D2CE84E180DE8EE130
:101F60007EDE83E97CDE87E07ADE80E178DEC7CE44
:101F7000863709F0C4CE0DCFE199FECF9FBB8EBB53
:101F8000E09A99278DB30895262FE199FECF9FBB44
:101F90008EBB2DBB0FB6F894E29AE19A0FBE019664
:061FA0000895F894FFCF44
:021FA6008000B9
:0400000300001C00DD
:00000001FF
