:103800000C94341C0C94511C0C94511C0C94511CA1
:103810000C94511C0C94511C0C94511C0C94511C74
:103820000C94511C0C94511C0C94511C0C94511C64
:103830000C94511C0C94511C0C94511C0C94511C54
:103840000C94511C0C94511C0C94511C0C94511C44
:103850000C94511C0C94511C0C94511C0C94511C34
:103860000C94511C0C94511C11241FBECFEFD4E0BA
:10387000DEBFCDBF11E0A0E0B1E0E0E9FDE302C0B2
:1038800005900D92A230B107D9F712E0A2E0B1E0A5
:1038900001C01D92AD30B107E1F70E94031D0C94E9
:1038A000C61E0C94001C9091C00095FFFCCF809325
:1038B000C60008951F93282F332727FD3095207FBA
:1038C000307094E0359527959A95E1F72A3014F0F9
:1038D000295A01C0205D182F1F701A3014F0195A90
:1038E00001C0105D822F0E94531C812F0E94531C27
:1038F0001F910895EF92FF920F931F93EE24FF24E0
:10390000870113C00894E11CF11C011D111D81E405
:10391000E81682E4F8068FE0080780E0180728F030
:10392000E0910401F091050109958091C00087FFA5
:10393000E9CF8091C6001F910F91FF90EF900895FD
:103940000F931F930E947A1C082F0E94531C0E9401
:103950007A1C182F0E94531C013614F0075503C01F
:1039600000330CF00053113614F0175503C0103318
:103970000CF01053802F8295807F810F1F910F9143
:10398000089590E007C02091C00027FFFCCF209150
:10399000C6009F5F9817B8F308951F93182F0E94D1
:1039A0007A1C803251F484E10E94531C812F0E94C2
:1039B000531C80E10E94531C0CC0809103018F5F57
:1039C00080930301853029F4E0910401F091050111
:1039D00009951F9108950E947A1C803239F484E180
:1039E0000E94531C80E10E94531C089580910301A2
:1039F0008F5F80930301853029F4E0910401F091F9
:103A0000050109950895BF92CF92DF92EF92FF9240
:103A10000F931F93CF93DF9300008CE08093C4003B
:103A20001092C50088E18093C10086E08093C200B7
:103A30005098589ABB24B3940E947A1C803309F49E
:103A400041C08133E1F40E947A1C803209F090C1B8
:103A500084E10E94531C81E40E94531C86E50E946D
:103A6000531C82E50E94531C80E20E94531C89E48F
:103A70000E94531C83E50E94531C80E504C18034DE
:103A800039F40E947A1C8638E8F00E947A1C1AC029
:103A9000813499F40E947A1C803811F482E065C167
:103AA000813811F481E061C1823811F480E15DC197
:103AB000883909F059C183E058C1823431F484E176
:103AC0000E94C11C0E94EB1CB7CF853411F485E025
:103AD000F7CF8035B9F38135A9F3823599F3853570
:103AE00049F40E947A1C809306010E947A1C8093FC
:103AF0000701E8CF863521F484E00E94C11C34C15F
:103B0000843609F0C6C00E947A1C809309020E9484
:103B10007A1C8093080280910C028E7F80930C02A5
:103B20000E947A1C853429F480910C028160809374
:103B30000C0208E011E06801EE24FF2408C00E9496
:103B40007A1CF60181936F010894E11CF11C8091AD
:103B5000080290910902E816F90688F30E947A1C7F
:103B6000803209F005C180910C0280FD17C020C091
:103B7000F999FECF209106013091070132BD21BD98
:103B8000F80141918F0140BDFA9AF99A2F5F3F4F9A
:103B90003093070120930601019602C080E090E077
:103BA00020910802309109028217930708F36AC036
:103BB00080910701880F880B8B2180930B028091E5
:103BC000060190910701880F991F90930701809338
:103BD00006018091080280FF09C08091080290913F
:103BE000090201969093090280930802F894F999CA
:103BF000FECF1127E0910601F0910701C8E0D1E066
:103C00008091080290910902103091F400915700C0
:103C100001700130D9F303E000935700E89500915B
:103C2000570001700130D9F301E100935700E89586
:103C3000099019900091570001700130D9F301E00B
:103C400000935700E8951395103498F011270091D0
:103C5000570001700130D9F305E000935700E89553
:103C60000091570001700130D9F301E10093570032
:103C7000E8953296029709F0C7CF103011F00296FE
:103C8000E5CF112484E10E94531C80E10E94531C63
:103C9000D3CE843709F055C00E947A1C8093090264
:103CA0000E947A1C809308020E947A1C90910C0258
:103CB000853421F4916090930C020DC09E7F909307
:103CC0000C028091060190910701880F991F909333
:103CD0000701809306010E947A1C803209F0ACCE65
:103CE00084E10E94531C00E010E023C080910C028C
:103CF00080FF0BC0F999FECF8091060190910701DA
:103D000092BD81BDF89A80B507C081FD07C0E091E2
:103D10000601F091070184910E94531C80910601D5
:103D200090910701019690930701809306010F5F20
:103D30001F4F809108029091090208171907B0F2ED
:103D4000A4CF853779F40E947A1C803289F484E10B
:103D50000E94531C8EE10E94531C84E90E94531C54
:103D600086E091CF863721F480E00E94CD1C64CE9E
:103D7000809103018F5F80930301853009F05CCE51
:103D8000E0910401F0910501099556CEF894FFCF1A
:023D90008000B1
:0400000300003800C1
:00000001FF
