:103C00000C94341E0C94191F0C94191F0C94191F3A
:103C10000C94191F0C94191F0C94191F0C94191F44
:103C20000C94191F0C94191F0C94191F0C94191F34
:103C30000C94191F0C94191F0C94191F0C94191F24
:103C40000C94191F0C94191F0C94191F0C94191F14
:103C50000C94191F0C94191F0C94191F0C94191F04
:103C60000C94191F0C94191F11241FBECFEFD4E020
:103C7000DEBFCDBF0E943E1E0C94531F1F92CDB7D6
:103C8000DEB7112484B714BE83FD0E944B1F82E06F
:103C90008093C00088E18093C10096E09093C200B9
:103CA00099E19093C400809360008FE0809360005E
:103CB000259A612C712C98E1E92E28E0D22E33E070
:103CC000F32ECC24C39445E0B42E51E1A52E0E94DE
:103CD000221F813491F40E94221F89830E942E1F8B
:103CE0008981823811F485E005C0813811F484E0BF
:103CF00001C083E00E941B1F98C0823411F484E14C
:103D000003C0853421F485E00E943C1F8EC08535B8
:103D100051F40E94221F682E0E94221F712C782AC3
:103D2000660C771C80C0863529F484E00E943C1F15
:103D300080E0E0CF843609F045C00E94221F0E9437
:103D4000221F982E0E94221F611488E3780618F023
:103D500000E011E004C0F301F7BEE895F9CF0E943E
:103D6000221FF80181938F019E12F9CF6114F8E3AD
:103D70007F0618F0F301F7BEE8950E942E1F07B6E4
:103D800000FCFDCFA301A0E0B1E08C9112969D0153
:103D900021503109F901208190E0922BFA010C01A8
:103DA000C7BEE89511244E5F5F4FA038F1E0BF0712
:103DB00061F7F301B7BEE89507B600FCFDCFA7BEDB
:103DC000E89533C08437E9F40E94221F0E94221F25
:103DD000982E0E94221F0E942E1FF301862C890C10
:103DE0008F010F5F1F4F84910E941B1F801207C01D
:103DF000FFEF6F1A7F0A9A94690C711C16C0F801C4
:103E0000EFCF853751F40E942E1F8EE10E941B1FB9
:103E100084E90E941B1F86E06DCF813521F4E0927A
:103E20006000D09260000E942E1F80E10E941B1F44
:103E30004ECF0C94001E9091C00095FFFCCF809354
:103E4000C60008958091C00087FFFCCF8091C0001C
:103E500084FD01C0A8958091C60008950E94221F8C
:103E6000803239F088E18093600088E080936000C0
:103E7000FFCF84E10C941B1FCF93C82F0E94221FF9
:103E8000C150E1F7CF910C942E1FE0E6F0E098E1ED
:103E9000908380830895E0E6F0E088E180831082DB
:0A3EA000EE27FF270994F894FFCFE6
:0400000300003C00BD
:00000001FF
