:1018000012C02CC02BC02AC029C028C027C026C0A7
:1018100025C024C023C022C021C020C01FC01EC0BC
:101820001DC01CC01BC011241FBECFE5D4E0DEBF0D
:10183000CDBF10E0A0E6B0E0EAEFFCE102C0059009
:101840000D92A236B107D9F711E0A2E6B0E001C0CF
:101850001D92AD36B107E1F7A6D04DC2D1CF5D9B49
:10186000FECF8CB908951F93282F332727FD30957D
:10187000207F307094E0359527959A95E1F72A30CE
:1018800014F0295A01C0205D182F1F701A3014F06F
:10189000195A01C0105D822FE2DF812FE0DF1F9116
:1018A0000895EF92FF920F931F93EE24FF24870178
:1018B00013C00894E11CF11C011D111D81E2E81602
:1018C00081EAF80687E0080780E0180728F0E09131
:1018D0006400F091650009955F9BEBCF8CB11F917F
:1018E0000F91FF90EF9008950F931F93DADF082F69
:1018F000B6DFD7DF182FB3DF013614F0075503C06A
:1019000000330CF00053113614F0175503C0103398
:101910000CF01053802F8295807F810F1F910F91C3
:101920000895FF920F931F93F82E10E005C0B9DFC2
:101930000F5F0F15E0F31F5F1F1510F400E0F9CFE4
:101940001F910F91FF9008951F93182FAADF8032E7
:1019500039F484E184DF812F82DF80E180DF0CC0F5
:10196000809163008F5F80936300853029F4E0915C
:101970006400F091650009951F91089592DF80320F
:1019800029F484E16CDF80E16ADF089580916300CF
:101990008F5F80936300853029F4E0916400F091BB
:1019A000650009950895BF92CF92DF92EF92FF9262
:1019B0000F931F93CF93DF93000010BC8CE089B985
:1019C00088E18AB986E880BDBB24B3946ADF80339E
:1019D000A9F18133A1F465DF803209F069C184E1A6
:1019E0003EDF81E43CDF86E53ADF82E538DF80E2F6
:1019F00036DF89E434DF83E532DF80E5F6C080340A
:101A000029F44FDF8638D0F04CDF18C0813491F4D0
:101A100048DF803811F482E049C1813811F481E057
:101A200045C1823811F480E141C1883909F03DC1D6
:101A300083E03CC1823421F484E173DF9FDFC6CFB1
:101A4000853411F485E0F9CF8035C1F38135B1F3E8
:101A50008235A1F3853539F424DF8093660021DFD8
:101A600080936700EBCF863519F484E05ADF1DC1FF
:101A7000843609F0BEC015DF8093690112DF8093C0
:101A8000680180916C018E7F80936C010ADF853440
:101A900029F480916C01816080936C0148E6C42E2A
:101AA00040E0D42E760100E010E006C0FADEF70137
:101AB00081937F010F5F1F4F8091680190916901B1
:101AC0000817190798F3EDDE803209F0F1C0809114
:101AD0006C0180FD15C01EC0F60161916F018091FF
:101AE000660090916700FAD080916600909167003F
:101AF000019690936700809366000F5F1F4F02C0AE
:101B000000E010E0809168019091690108171907C1
:101B100018F36AC080916700880F880B8B2180932F
:101B20006B018091660090916700880F991F9093D8
:101B30006700809366008091680180FF09C08091F2
:101B40006801909169010196909369018093680101
:101B5000F894E199FECF1127E0916600F0916700BB
:101B6000C8E6D0E08091680190916901103091F44D
:101B70000091570001700130D9F303E00093570042
:101B8000E8950091570001700130D9F301E100930D
:101B90005700E895099019900091570001700130A5
:101BA000D9F301E000935700E8951395103298F0AF
:101BB00011270091570001700130D9F305E000931F
:101BC0005700E8950091570001700130D9F301E109
:101BD00000935700E8953296029709F0C7CF10306E
:101BE00011F00296E5CF112484E139DE80E137DE81
:101BF000EDCE843709F04AC054DE8093690151DE8E
:101C0000809368014EDE90916C01853421F49160DF
:101C100090936C010DC09E7F90936C018091660043
:101C200090916700880F991F9093670080936600DA
:101C300038DE803209F0CACE84E111DE00E010E027
:101C40001DC080916C0180FF06C08091660090915C
:101C500067003CD007C081FD06C0E0916600F091AE
:101C600067008491FCDD8091660090916700019689
:101C700090936700809366000F5F1F4F809168010B
:101C80009091690108171907E0F2B0CF853759F430
:101C900008DE803269F484E1E2DD8EE1E0DD83E993
:101CA000DEDD87E0A2CF863719F480E04DDE8ECEF0
:101CB000809163008F5F80936300853009F086CE4A
:101CC000E0916400F0916500099580CEE199FECF26
:101CD0009FBB8EBBE09A99278DB30895262FE1997B
:101CE000FECF9FBB8EBB2DBB0FB6F894E29AE19A54
:0A1CF0000FBE01960895F894FFCF8F
:021CFA00800068
:0400000300001800E1
:00000001FF
