:103800000C94341C0C94511C0C94511C0C94511CA1
:103810000C94511C0C94511C0C94511C0C94511C74
:103820000C94511C0C94511C0C94511C0C94511C64
:103830000C94511C0C94511C0C94511C0C94511C54
:103840000C94511C0C94511C0C94511C0C94511C44
:103850000C94511C0C94511C0C94511C0C94511C34
:103860000C94511C0C94511C11241FBECFEFD4E0BA
:10387000DEBFCDBF11E0A0E0B1E0E4E7FDE302C0B0
:1038800005900D92A230B107D9F712E0A2E0B1E0A5
:1038900001C01D92AD30B107E1F70E94031D0C94E9
:1038A000B81E0C94001C9091C00095FFFCCF809333
:1038B000C6000895CF93282F332727FD3095207F0A
:1038C000332794E0359527959A95E1F72A3014F03F
:1038D000295A01C0205D982F9F70C92F9A3014F08B
:1038E000C95A01C0C05D822F0E94531C8C2FCF91FA
:1038F0000C94531CCF92DF92EF92FF92C12CD12CEB
:10390000760112C08FEFC81AD80AE80AF80A81E8CF
:10391000C8168DE8D8068BE5E806F10428F0E0919A
:103920000201F091030109958091C00087FFEACF61
:103930008091C600FF90EF90DF90CF900895CF93D5
:10394000DF930E947A1CD82F0E94531C0E947A1C7D
:10395000C82F0E94531CD13614F0D75503C0D03362
:103960000CF0D053C13614F0C75503C0C0330CF06F
:10397000C0538C2F90E1D99F800D1124DF91CF91FE
:10398000089590E007C02091C00027FFFCCF209150
:10399000C6009F5F9813F7CF0895CF93C82F0E945A
:1039A0007A1C803251F484E10E94531C8C2F0E94B7
:1039B000531C80E1CF910C94531C809104018F5FC4
:1039C00080930401853031F4E0910201F09103010C
:1039D000CF910994CF9108950E947A1C803231F4DE
:1039E00084E10E94531C80E10C94531C80910401DB
:1039F0008F5F80930401853029F4E0910201F091FA
:103A000003010994089500008CE08093C400109293
:103A1000C50088E18093C10086E08093C200509881
:103A2000589ADD24D3940E947A1C803309F442C052
:103A30008133E1F40E947A1C803209F08BC184E169
:103A40000E94531C81E40E94531C86E50E94531C73
:103A500082E50E94531C80E20E94531C89E40E946C
:103A6000531C83E50E94531C80E56BC1803439F4FC
:103A70000E947A1C8638F0F00E947A1C1BC08134A8
:103A8000A1F40E947A1C803811F482E003C08138CE
:103A900021F481E00E94CD1CC6CF823811F480E170
:103AA000F9CF883921F583E0F5CF823431F484E110
:103AB0000E94C11C0E94EC1CB6CF853411F485E035
:103AC000F7CF8035B9F38135A9F3823599F3853580
:103AD00049F40E947A1C809306010E947A1C80930C
:103AE0000701E8CF863529F484E00E94C11C80E0FC
:103AF000D1CF843609F0BDC00E947A1C80930902A0
:103B00000E947A1C8093080280910C028E7F809321
:103B10000C020E947A1C853429F480910C02816089
:103B200080930C0208E011E0780105C00E947A1C25
:103B3000F70181937F01970128503140809108025D
:103B4000909109022817390788F30E947A1C803265
:103B500009F000C180910C0280FD14C01EC0F999CB
:103B6000FECF809106019091070192BD81BDF801C1
:103B700021918F0120BDFA9AF99A0196909307013D
:103B8000809306019801285031408091080290915D
:103B900009022817390718F36AC080910701880FB6
:103BA000880B8D2180930B02809106019091070173
:103BB000880F991F90930701809306018091080256
:103BC00080FF09C0809108029091090201969093AC
:103BD000090280930802F894F999FECF1127E09129
:103BE0000601F0910701C8E0D1E0809108029091B0
:103BF0000902103091F40091570001700130D9F39F
:103C000003E000935700E8950091570001700130E0
:103C1000D9F301E100935700E895099019900091BC
:103C2000570001700130D9F301E000935700E89587
:103C30001395103498F0112700915700017001304E
:103C4000D9F305E000935700E89500915700017003
:103C50000130D9F301E100935700E89532960297BD
:103C600009F0C7CF103011F00296E5CF112484E19E
:103C700068C0843709F055C00E947A1C80930902FD
:103C80000E947A1C809308020E947A1C90910C0278
:103C9000853421F4916090930C020DC09E7F909327
:103CA0000C028091060190910701880F991F909353
:103CB0000701809306010E947A1C803209F0B3CE7E
:103CC00084E10E94531C00E010E023C080910C02AC
:103CD00080FF0BC0F999FECF8091060190910701FA
:103CE00092BD81BDF89A80B507C081FD07C0E09103
:103CF0000601F091070184910E94531C80910601F6
:103D000090910701019690930701809306010F5F40
:103D10001F4F809108029091090208171907B0F20D
:103D200012C08537A1F40E947A1C803299F484E194
:103D30000E94531C8EE10E94531C84E90E94531C74
:103D400086E00E94531C80E10E94531C6CCE863793
:103D500009F4CDCE809104018F5F809304018530FA
:103D600009F061CEE0910201F091030109955BCE6B
:043D7000F894FFCFF5
:023D74008000CD
:0400000300003800C1
:00000001FF
