:101C000019C0E3C0E2C0E1C0E0C0DFC0DEC0DDC09B
:101C1000DCC0DBC0DAC0D9C0D8C0D7C0D6C0D5C000
:101C2000D4C0D3C0D2C0D1C0D0C0CFC0CEC0CDC030
:101C3000CCC0CBC011241FBECFEFD4E0DEBFCDBFE0
:101C400001D0F8C01F92CDB7DEB7112484B714BEFF
:101C500083FDE8D082E08093C00088E18093C100DA
:101C600096E09093C20099E19093C4008093600045
:101C70008FE080936000259A612C712C98E1E92E09
:101C800028E0D22E33E0F32ECC24C39445E0B42ECA
:101C900051E1A52EA2D0813479F49FD08983A9D0B7
:101CA0008981823811F485E005C0813811F484E01F
:101CB00001C083E08BD086C0823411F484E103C07C
:101CC000853419F485E0A1D07DC0853541F485D0F7
:101CD000682E83D0712C782A660C771C72C08635EA
:101CE00021F484E092D080E0E5CF843609F040C052
:101CF00074D073D0982E71D0611488E1780618F0F2
:101D000000E011E004C0F301F7BEE895F9CF65D01B
:101D1000F80181938F019E12FACF6114F8E17F06DA
:101D200018F0F301F7BEE89564D007B600FCFDCFCC
:101D3000A301A0E0B1E08C9112969D0121503109E0
:101D4000F901208190E0922BFA010C01C7BEE895C1
:101D500011244E5F5F4FA034F1E0BF0761F7F3013C
:101D6000B7BEE89507B600FCFDCFA7BEE8952AC030
:101D70008437C1F432D031D0982E2FD03AD0F3012D
:101D8000862C890C8F010F5F1F4F84911FD080120A
:101D900007C0FFEF6F1A7F0A9A94690C711C12C07A
:101DA000F801F0CF853739F424D08EE10FD083E9E4
:101DB0000DD08AE07FCF813521F4E0926000D0928F
:101DC000600017D080E102D065CF1ACF9091C0009B
:101DD00095FFFCCF8093C60008958091C00087FFD7
:101DE000FCCF8091C00084FD01C0A8958091C60001
:101DF0000895F3DF803239F088E18093600088E055
:101E000080936000FFCF84E1E1CFCF93C82FE5DF5F
:101E1000C150E9F7CF91EDCFE0E6F0E098E1908393
:101E200080830895E0E6F0E088E180831082EE2769
:081E3000FF270994F894FFCF8D
:0400000300001C00DD
:00000001FF
