:1018000012C02CC02BC02AC029C028C027C026C0A7
:1018100025C024C023C022C021C020C01FC01EC0BC
:101820001DC01CC01BC011241FBECFE5D4E0DEBF0D
:10183000CDBF10E0A0E6B0E0E8EDFCE102C005900D
:101840000D92A236B107D9F711E0A2E6B0E001C0CF
:101850001D92AD36B107E1F7A6D03CC2D1CF5D9B5A
:10186000FECF8CB90895CF93282F332727FD3095CD
:10187000207F332794E0359527959A95E1F72A3014
:1018800014F0295A01C0205D982F9F70C92F9A30FB
:1018900014F0C95A01C0C05D822FE1DF8C2FCF91B7
:1018A000DECFCF92DF92EF92FF92C12CD12C760146
:1018B00012C08FEFC81AD80AE80AF80A81E8C816D9
:1018C0008DE8D8068BE5E806F10428F0E091620087
:1018D000F091630009955F9BECCF8CB1FF90EF9086
:1018E000DF90CF900895CF93DF93DBDFD82FB7DF62
:1018F000D8DFC82FB4DFD13614F0D75503C0D033AA
:101900000CF0D053C13614F0C75503C0C0330CF0EF
:10191000C0538C2F90E1D99F800D1124DF91CF917E
:1019200008951F93CF93DF93182FC0E007C0B9DF4E
:10193000DF5F01C0D0E0D113FACFCF5FC113FACF80
:10194000DF91CF911F910895CF93C82FAADF8032E6
:1019500039F484E184DF8C2F82DF80E1CF917FCF67
:10196000809164008F5F80936400853031F4E09152
:101970006200F0916300CF910994CF91089591DFB7
:10198000803221F484E16BDF80E169CF80916400D3
:101990008F5F80936400853029F4E0916200F091BC
:1019A000630009940895000010BC8CE089B988E1B7
:1019B0008AB986E880BDDD24D39473DF803309F4CF
:1019C00035C08133A1F46DDF803209F060C184E15C
:1019D00046DF81E444DF86E542DF82E540DF80E2E6
:1019E0003EDF89E43CDF83E53ADF80E549C18034AE
:1019F00029F457DF8638D0F054DF18C0813491F4D1
:101A000050DF803811F482E003C0813819F481E09E
:101A10009BDFD3CF823811F480E1FACF8839F9F413
:101A200083E0F6CF823421F484E17BDFA8DFC5CFE9
:101A3000853411F485E0F9CF8035C1F38135B1F3F8
:101A40008235A1F3853539F42CDF8093660029DFD8
:101A500080936700EBCF863521F484E062DF80E07D
:101A6000D7CF843609F0B6C01CDF8093690119DF37
:101A70008093680180916C018E7F80936C0111DFEF
:101A8000853429F480916C01816080936C0108E6B3
:101A900010E0780104C005DFF70181937F01970111
:101AA00028563040809168019091690128173907C4
:101AB00090F3F7DE803209F0EAC080916C0180FD7E
:101AC00012C01CC0F80161918F0180916600909155
:101AD0006700F3D080916600909167000196909323
:101AE0006700809366009801285630408091680115
:101AF000909169012817390728F36AC0809167001F
:101B0000880F880B8D2180936B01809166009091E6
:101B10006700880F991F90936700809366008091FB
:101B2000680180FF09C08091680190916901019668
:101B30009093690180936801F894E199FECF112791
:101B4000E0916600F0916700C8E6D0E080916801FE
:101B500090916901103091F40091570001700130AB
:101B6000D9F303E000935700E89500915700017006
:101B70000130D9F301E100935700E89509901990DD
:101B80000091570001700130D9F301E00093570034
:101B9000E8951395103298F01127009157000170C5
:101BA0000130D9F305E000935700E8950091570004
:101BB00001700130D9F301E100935700E8953296A6
:101BC000029709F0C7CF103011F00296E5CF11242B
:101BD00084E156C0843709F047C063DE8093690111
:101BE00060DE809368015DDE90916C01853421F4A4
:101BF000916090936C010DC09E7F90936C018091D9
:101C0000660090916700880F991F909367008093FA
:101C1000660047DE803209F0D0CE84E120DE00E0AD
:101C200010E01AC020916C018091660090916700CD
:101C300020FF02C03AD004C021FD03C0FC01849102
:101C40000EDE809166009091670001969093670088
:101C5000809366000F5F1F4F80916801909169012A
:101C600008171907F8F20DC0853771F41ADE8032B3
:101C700071F484E1F4DD8EE1F2DD83E9F0DD87E0EB
:101C8000EEDD80E1ECDD99CE863709F4E8CE809177
:101C900064008F5F80936400853009F08ECEE09100
:101CA0006200F0916300099588CEE199FECF9FBB59
:101CB0008EBBE09A99278DB30895262FE199FECF28
:101CC0009FBB8EBB2DBB0FB6F894E29AE19A0FBE74
:081CD00001960895F894FFCF7E
:021CD80080008A
:0400000300001800E1
:00000001FF
